{
  "_format": "hh-sol-artifact-1",
  "contractName": "MiniMateRouter",
  "sourceName": "contracts/MiniMateRouter.sol",
  "abi": [
    {
      "inputs": [
        {
          "internalType": "address",
          "name": "_cUSD",
          "type": "address"
        }
      ],
      "stateMutability": "nonpayable",
      "type": "constructor"
    },
    {
      "inputs": [
        {
          "internalType": "address",
          "name": "owner",
          "type": "address"
        }
      ],
      "name": "OwnableInvalidOwner",
      "type": "error"
    },
    {
      "inputs": [
        {
          "internalType": "address",
          "name": "account",
          "type": "address"
        }
      ],
      "name": "OwnableUnauthorizedAccount",
      "type": "error"
    },
    {
      "inputs": [],
      "name": "ReentrancyGuardReentrantCall",
      "type": "error"
    },
    {
      "inputs": [
        {
          "internalType": "address",
          "name": "token",
          "type": "address"
        }
      ],
      "name": "SafeERC20FailedOperation",
      "type": "error"
    },
    {
      "anonymous": false,
      "inputs": [
        {
          "indexed": true,
          "internalType": "address",
          "name": "previousOwner",
          "type": "address"
        },
        {
          "indexed": true,
          "internalType": "address",
          "name": "newOwner",
          "type": "address"
        }
      ],
      "name": "OwnershipTransferred",
      "type": "event"
    },
    {
      "anonymous": false,
      "inputs": [
        {
          "indexed": true,
          "internalType": "address",
          "name": "from",
          "type": "address"
        },
        {
          "indexed": true,
          "internalType": "address",
          "name": "to",
          "type": "address"
        },
        {
          "indexed": false,
          "internalType": "uint256",
          "name": "amount",
          "type": "uint256"
        },
        {
          "indexed": false,
          "internalType": "enum MiniMateRouter.Category",
          "name": "category",
          "type": "uint8"
        },
        {
          "indexed": false,
          "internalType": "string",
          "name": "description",
          "type": "string"
        }
      ],
      "name": "PaymentMade",
      "type": "event"
    },
    {
      "inputs": [
        {
          "internalType": "uint256",
          "name": "",
          "type": "uint256"
        }
      ],
      "name": "allTransactions",
      "outputs": [
        {
          "internalType": "address",
          "name": "from",
          "type": "address"
        },
        {
          "internalType": "address",
          "name": "to",
          "type": "address"
        },
        {
          "internalType": "uint256",
          "name": "amount",
          "type": "uint256"
        },
        {
          "internalType": "enum MiniMateRouter.Category",
          "name": "category",
          "type": "uint8"
        },
        {
          "internalType": "string",
          "name": "description",
          "type": "string"
        },
        {
          "internalType": "uint256",
          "name": "timestamp",
          "type": "uint256"
        }
      ],
      "stateMutability": "view",
      "type": "function"
    },
    {
      "inputs": [
        {
          "internalType": "address[]",
          "name": "_recipients",
          "type": "address[]"
        },
        {
          "internalType": "uint256[]",
          "name": "_amounts",
          "type": "uint256[]"
        },
        {
          "internalType": "enum MiniMateRouter.Category",
          "name": "_category",
          "type": "uint8"
        },
        {
          "internalType": "string",
          "name": "_description",
          "type": "string"
        }
      ],
      "name": "batchPay",
      "outputs": [],
      "stateMutability": "nonpayable",
      "type": "function"
    },
    {
      "inputs": [],
      "name": "cUSD",
      "outputs": [
        {
          "internalType": "contract IERC20",
          "name": "",
          "type": "address"
        }
      ],
      "stateMutability": "view",
      "type": "function"
    },
    {
      "inputs": [
        {
          "internalType": "address",
          "name": "_user",
          "type": "address"
        },
        {
          "internalType": "uint256",
          "name": "_count",
          "type": "uint256"
        }
      ],
      "name": "getRecentTransactions",
      "outputs": [
        {
          "components": [
            {
              "internalType": "address",
              "name": "from",
              "type": "address"
            },
            {
              "internalType": "address",
              "name": "to",
              "type": "address"
            },
            {
              "internalType": "uint256",
              "name": "amount",
              "type": "uint256"
            },
            {
              "internalType": "enum MiniMateRouter.Category",
              "name": "category",
              "type": "uint8"
            },
            {
              "internalType": "string",
              "name": "description",
              "type": "string"
            },
            {
              "internalType": "uint256",
              "name": "timestamp",
              "type": "uint256"
            }
          ],
          "internalType": "struct MiniMateRouter.Transaction[]",
          "name": "",
          "type": "tuple[]"
        }
      ],
      "stateMutability": "view",
      "type": "function"
    },
    {
      "inputs": [
        {
          "internalType": "address",
          "name": "_user",
          "type": "address"
        }
      ],
      "name": "getSpendingBreakdown",
      "outputs": [
        {
          "internalType": "uint256[9]",
          "name": "",
          "type": "uint256[9]"
        }
      ],
      "stateMutability": "view",
      "type": "function"
    },
    {
      "inputs": [
        {
          "internalType": "address",
          "name": "_user",
          "type": "address"
        }
      ],
      "name": "getTransactionCount",
      "outputs": [
        {
          "internalType": "uint256",
          "name": "",
          "type": "uint256"
        }
      ],
      "stateMutability": "view",
      "type": "function"
    },
    {
      "inputs": [
        {
          "internalType": "address",
          "name": "_user",
          "type": "address"
        }
      ],
      "name": "getTransactions",
      "outputs": [
        {
          "components": [
            {
              "internalType": "address",
              "name": "from",
              "type": "address"
            },
            {
              "internalType": "address",
              "name": "to",
              "type": "address"
            },
            {
              "internalType": "uint256",
              "name": "amount",
              "type": "uint256"
            },
            {
              "internalType": "enum MiniMateRouter.Category",
              "name": "category",
              "type": "uint8"
            },
            {
              "internalType": "string",
              "name": "description",
              "type": "string"
            },
            {
              "internalType": "uint256",
              "name": "timestamp",
              "type": "uint256"
            }
          ],
          "internalType": "struct MiniMateRouter.Transaction[]",
          "name": "",
          "type": "tuple[]"
        }
      ],
      "stateMutability": "view",
      "type": "function"
    },
    {
      "inputs": [],
      "name": "owner",
      "outputs": [
        {
          "internalType": "address",
          "name": "",
          "type": "address"
        }
      ],
      "stateMutability": "view",
      "type": "function"
    },
    {
      "inputs": [
        {
          "internalType": "address",
          "name": "_to",
          "type": "address"
        },
        {
          "internalType": "uint256",
          "name": "_amount",
          "type": "uint256"
        },
        {
          "internalType": "enum MiniMateRouter.Category",
          "name": "_category",
          "type": "uint8"
        },
        {
          "internalType": "string",
          "name": "_description",
          "type": "string"
        }
      ],
      "name": "pay",
      "outputs": [],
      "stateMutability": "nonpayable",
      "type": "function"
    },
    {
      "inputs": [],
      "name": "renounceOwnership",
      "outputs": [],
      "stateMutability": "nonpayable",
      "type": "function"
    },
    {
      "inputs": [
        {
          "internalType": "address",
          "name": "",
          "type": "address"
        },
        {
          "internalType": "enum MiniMateRouter.Category",
          "name": "",
          "type": "uint8"
        }
      ],
      "name": "spendingByCategory",
      "outputs": [
        {
          "internalType": "uint256",
          "name": "",
          "type": "uint256"
        }
      ],
      "stateMutability": "view",
      "type": "function"
    },
    {
      "inputs": [
        {
          "internalType": "address",
          "name": "",
          "type": "address"
        }
      ],
      "name": "totalSpent",
      "outputs": [
        {
          "internalType": "uint256",
          "name": "",
          "type": "uint256"
        }
      ],
      "stateMutability": "view",
      "type": "function"
    },
    {
      "inputs": [
        {
          "internalType": "address",
          "name": "newOwner",
          "type": "address"
        }
      ],
      "name": "transferOwnership",
      "outputs": [],
      "stateMutability": "nonpayable",
      "type": "function"
    },
    {
      "inputs": [
        {
          "internalType": "address",
          "name": "",
          "type": "address"
        },
        {
          "internalType": "uint256",
          "name": "",
          "type": "uint256"
        }
      ],
      "name": "userTransactions",
      "outputs": [
        {
          "internalType": "address",
          "name": "from",
          "type": "address"
        },
        {
          "internalType": "address",
          "name": "to",
          "type": "address"
        },
        {
          "internalType": "uint256",
          "name": "amount",
          "type": "uint256"
        },
        {
          "internalType": "enum MiniMateRouter.Category",
          "name": "category",
          "type": "uint8"
        },
        {
          "internalType": "string",
          "name": "description",
          "type": "string"
        },
        {
          "internalType": "uint256",
          "name": "timestamp",
          "type": "uint256"
        }
      ],
      "stateMutability": "view",
      "type": "function"
    }
  ],
  "bytecode": "0x60a06040523480156200001157600080fd5b5060405162001be038038062001be08339810160408190526200003491620000cd565b33806200005b57604051631e4fbdf760e01b81526000600482015260240160405180910390fd5b62000066816200007d565b50600180556001600160a01b0316608052620000ff565b600080546001600160a01b038381166001600160a01b0319831681178455604051919092169283917f8be0079c531659141344cd1fd0a4f28419497f9722a3daafe3b4186f6b6457e09190a35050565b600060208284031215620000e057600080fd5b81516001600160a01b0381168114620000f857600080fd5b9392505050565b608051611ab7620001296000396000818161011d015281816108960152610ec00152611ab76000f3fe608060405234801561001057600080fd5b50600436106100ea5760003560e01c8063a8949b461161008c578063bc22fd3f11610066578063bc22fd3f14610234578063d7ff071414610247578063e3f667bb1461025a578063f2fde38b1461028557600080fd5b8063a8949b46146101dc578063b7bbf983146101fc578063b842ec441461020f57600080fd5b80632e4eca2b116100c85780632e4eca2b1461018e578063715018a6146101a157806379e56407146101ab5780638da5cb5b146101cb57600080fd5b80630f8cda20146100ef5780631fccf6721461011857806323ca0cd214610157575b600080fd5b6101026100fd366004611467565b610298565b60405161010f9190611507565b60405180910390f35b61013f7f000000000000000000000000000000000000000000000000000000000000000081565b6040516001600160a01b03909116815260200161010f565b610180610165366004611467565b6001600160a01b031660009081526003602052604090205490565b60405190815260200161010f565b61010261019c3660046115c0565b610405565b6101a961066b565b005b6101be6101b9366004611467565b61067f565b60405161010f91906115ea565b6000546001600160a01b031661013f565b6101806101ea366004611467565b60056020526000908152604090205481565b6101a961020a3660046116b9565b610727565b61022261021d3660046115c0565b610cdc565b60405161010f96959493929190611767565b6101a96102423660046117b8565b610dce565b610222610255366004611827565b61121c565b610180610268366004611840565b600460209081526000928352604080842090915290825290205481565b6101a9610293366004611467565b611276565b6001600160a01b0381166000908152600360209081526040808320805482518185028101850190935280835260609492939192909184015b828210156103fa5760008481526020908190206040805160c0810182526006860290920180546001600160a01b039081168452600182015416938301939093526002830154908201526003820154909190606083019060ff16600881111561033a5761033a611489565b600881111561034b5761034b611489565b815260200160048201805461035f90611873565b80601f016020809104026020016040519081016040528092919081815260200182805461038b90611873565b80156103d85780601f106103ad576101008083540402835291602001916103d8565b820191906000526020600020905b8154815290600101906020018083116103bb57829003601f168201915b50505050508152602001600582015481525050815260200190600101906102d0565b505050509050919050565b6001600160a01b0382166000908152600360209081526040808320805482518185028101850190935280835260609493849084015b828210156105645760008481526020908190206040805160c0810182526006860290920180546001600160a01b039081168452600182015416938301939093526002830154908201526003820154909190606083019060ff1660088111156104a4576104a4611489565b60088111156104b5576104b5611489565b81526020016004820180546104c990611873565b80601f01602080910402602001604051908101604052809291908181526020018280546104f590611873565b80156105425780601f1061051757610100808354040283529160200191610542565b820191906000526020600020905b81548152906001019060200180831161052557829003601f168201915b505050505081526020016005820154815250508152602001906001019061043a565b50508251929350505080841115610579578093505b60008467ffffffffffffffff811115610594576105946118ad565b6040519080825280602002602001820160405280156105f357816020015b6040805160c081018252600080825260208083018290529282018190526060808301829052608083015260a082015282526000199092019101816105b25790505b50905060005b8581101561065f57838161060d88866118d9565b61061791906118ec565b81518110610627576106276118ff565b6020026020010151828281518110610641576106416118ff565b6020026020010181905250808061065790611915565b9150506105f9565b50925050505b92915050565b6106736112b4565b61067d60006112e1565b565b61068761142c565b61068f61142c565b60005b6009811015610720576001600160a01b0384166000908152600460205260408120908260088111156106c6576106c6611489565b60088111156106d7576106d7611489565b60088111156106e8576106e8611489565b815260200190815260200160002054828260098110610709576107096118ff565b60200201528061071881611915565b915050610692565b5092915050565b61072f611331565b8584146107755760405162461bcd60e51b815260206004820152600f60248201526e098cadccee8d040dad2e6dac2e8c6d608b1b60448201526064015b60405180910390fd5b60005b86811015610cc9576000888883818110610794576107946118ff565b90506020020160208101906107a99190611467565b6001600160a01b0316036107f35760405162461bcd60e51b8152602060048201526011602482015270125b9d985b1a59081c9958da5c1a595b9d607a1b604482015260640161076c565b6000868683818110610807576108076118ff565b90506020020135116108505760405162461bcd60e51b81526020600482015260126024820152710416d6f756e74206d757374206265203e20360741b604482015260640161076c565b6108ce33898984818110610866576108666118ff565b905060200201602081019061087b9190611467565b88888581811061088d5761088d6118ff565b905060200201357f00000000000000000000000000000000000000000000000000000000000000006001600160a01b031661135b909392919063ffffffff16565b60006040518060c00160405280336001600160a01b031681526020018a8a858181106108fc576108fc6118ff565b90506020020160208101906109119190611467565b6001600160a01b03168152602001888885818110610931576109316118ff565b90506020020135815260200186600881111561094f5761094f611489565b815260200185858080601f016020809104026020016040519081016040528093929190818152602001838380828437600092018290525093855250504260209384015250600280546001818101835591909252835160069092027f405787fa12a823e0f2b7631cc41b3ba8828b3321ca811111fa75cd3aa3bb5ace810180546001600160a01b039485166001600160a01b0319918216178255948601517f405787fa12a823e0f2b7631cc41b3ba8828b3321ca811111fa75cd3aa3bb5acf830180549190951695169490941790925560408401517f405787fa12a823e0f2b7631cc41b3ba8828b3321ca811111fa75cd3aa3bb5ad083015560608401517f405787fa12a823e0f2b7631cc41b3ba8828b3321ca811111fa75cd3aa3bb5ad190920180549495508594909160ff1990911690836008811115610a9257610a92611489565b021790555060808201516004820190610aab908261197d565b5060a0919091015160059091015533600090815260036020818152604080842080546001808201835591865294839020865160069096020180546001600160a01b03199081166001600160a01b039788161782559387015181830180549095169616959095179092558401516002840155606084015191830180548594939260ff1990911690836008811115610b4357610b43611489565b021790555060808201516004820190610b5c908261197d565b5060a082015181600501555050868683818110610b7b57610b7b6118ff565b33600090815260046020908152604082209202939093013592909150876008811115610ba957610ba9611489565b6008811115610bba57610bba611489565b81526020019081526020016000206000828254610bd791906118ec565b909155508790508683818110610bef57610bef6118ff565b9050602002013560056000336001600160a01b03166001600160a01b031681526020019081526020016000206000828254610c2a91906118ec565b909155508990508883818110610c4257610c426118ff565b9050602002016020810190610c579190611467565b6001600160a01b0316337fde395ded00cec9033b7d46a443f591106b80c17fc8cf0164e671027c071e0fbf898986818110610c9457610c946118ff565b90506020020135888888604051610cae9493929190611a3d565b60405180910390a35080610cc181611915565b915050610778565b50610cd360018055565b50505050505050565b60036020528160005260406000208181548110610cf857600080fd5b6000918252602090912060069091020180546001820154600283015460038401546004850180546001600160a01b039586169850939094169550909360ff909116929091610d4590611873565b80601f0160208091040260200160405190810160405280929190818152602001828054610d7190611873565b8015610dbe5780601f10610d9357610100808354040283529160200191610dbe565b820191906000526020600020905b815481529060010190602001808311610da157829003601f168201915b5050505050908060050154905086565b610dd6611331565b6001600160a01b038516610e205760405162461bcd60e51b8152602060048201526011602482015270125b9d985b1a59081c9958da5c1a595b9d607a1b604482015260640161076c565b60008411610e655760405162461bcd60e51b81526020600482015260126024820152710416d6f756e74206d757374206265203e20360741b604482015260640161076c565b336001600160a01b03861603610eb35760405162461bcd60e51b815260206004820152601360248201527221b0b73737ba103830bc903cb7bab939b2b63360691b604482015260640161076c565b610ee86001600160a01b037f00000000000000000000000000000000000000000000000000000000000000001633878761135b565b60006040518060c00160405280336001600160a01b03168152602001876001600160a01b03168152602001868152602001856008811115610f2b57610f2b611489565b815260200184848080601f016020809104026020016040519081016040528093929190818152602001838380828437600092018290525093855250504260209384015250600280546001818101835591909252835160069092027f405787fa12a823e0f2b7631cc41b3ba8828b3321ca811111fa75cd3aa3bb5ace810180546001600160a01b039485166001600160a01b0319918216178255948601517f405787fa12a823e0f2b7631cc41b3ba8828b3321ca811111fa75cd3aa3bb5acf830180549190951695169490941790925560408401517f405787fa12a823e0f2b7631cc41b3ba8828b3321ca811111fa75cd3aa3bb5ad083015560608401517f405787fa12a823e0f2b7631cc41b3ba8828b3321ca811111fa75cd3aa3bb5ad190920180549495508594909160ff199091169083600881111561106e5761106e611489565b021790555060808201516004820190611087908261197d565b5060a0919091015160059091015533600090815260036020818152604080842080546001808201835591865294839020865160069096020180546001600160a01b03199081166001600160a01b039788161782559387015181830180549095169616959095179092558401516002840155606084015191830180548594939260ff199091169083600881111561111f5761111f611489565b021790555060808201516004820190611138908261197d565b5060a09190910151600590910155336000908152600460205260408120869186600881111561116957611169611489565b600881111561117a5761117a611489565b8152602001908152602001600020600082825461119791906118ec565b909155505033600090815260056020526040812080548792906111bb9084906118ec565b90915550506040516001600160a01b0387169033907fde395ded00cec9033b7d46a443f591106b80c17fc8cf0164e671027c071e0fbf90611203908990899089908990611a3d565b60405180910390a35061121560018055565b5050505050565b6002818154811061122c57600080fd5b6000918252602090912060069091020180546001820154600283015460038401546004850180546001600160a01b0395861697509390941694919360ff90911692610d4590611873565b61127e6112b4565b6001600160a01b0381166112a857604051631e4fbdf760e01b81526000600482015260240161076c565b6112b1816112e1565b50565b6000546001600160a01b0316331461067d5760405163118cdaa760e01b815233600482015260240161076c565b600080546001600160a01b038381166001600160a01b0319831681178455604051919092169283917f8be0079c531659141344cd1fd0a4f28419497f9722a3daafe3b4186f6b6457e09190a35050565b60026001540361135457604051633ee5aeb560e01b815260040160405180910390fd5b6002600155565b604080516001600160a01b0385811660248301528416604482015260648082018490528251808303909101815260849091019091526020810180516001600160e01b03166323b872dd60e01b1790526113b59085906113bb565b50505050565b600080602060008451602086016000885af1806113de576040513d6000823e3d81fd5b50506000513d915081156113f6578060011415611403565b6001600160a01b0384163b155b156113b557604051635274afe760e01b81526001600160a01b038516600482015260240161076c565b6040518061012001604052806009906020820280368337509192915050565b80356001600160a01b038116811461146257600080fd5b919050565b60006020828403121561147957600080fd5b6114828261144b565b9392505050565b634e487b7160e01b600052602160045260246000fd5b600981106114bd57634e487b7160e01b600052602160045260246000fd5b9052565b6000815180845260005b818110156114e7576020818501810151868301820152016114cb565b506000602082860101526020601f19601f83011685010191505092915050565b60006020808301818452808551808352604092508286019150828160051b87010184880160005b838110156115b257888303603f19018552815180516001600160a01b039081168552888201511688850152868101518785015260608082015160c091906115778288018261149f565b50506080808301518282880152611590838801826114c1565b60a094850151979094019690965250509487019492509086019060010161152e565b509098975050505050505050565b600080604083850312156115d357600080fd5b6115dc8361144b565b946020939093013593505050565b6101208101818360005b60098110156116135781518352602092830192909101906001016115f4565b50505092915050565b60008083601f84011261162e57600080fd5b50813567ffffffffffffffff81111561164657600080fd5b6020830191508360208260051b850101111561166157600080fd5b9250929050565b80356009811061146257600080fd5b60008083601f84011261168957600080fd5b50813567ffffffffffffffff8111156116a157600080fd5b60208301915083602082850101111561166157600080fd5b60008060008060008060006080888a0312156116d457600080fd5b873567ffffffffffffffff808211156116ec57600080fd5b6116f88b838c0161161c565b909950975060208a013591508082111561171157600080fd5b61171d8b838c0161161c565b909750955085915061173160408b01611668565b945060608a013591508082111561174757600080fd5b506117548a828b01611677565b989b979a50959850939692959293505050565b6001600160a01b03878116825286166020820152604081018590526000611791606083018661149f565b60c060808301526117a560c08301856114c1565b90508260a0830152979650505050505050565b6000806000806000608086880312156117d057600080fd5b6117d98661144b565b9450602086013593506117ee60408701611668565b9250606086013567ffffffffffffffff81111561180a57600080fd5b61181688828901611677565b969995985093965092949392505050565b60006020828403121561183957600080fd5b5035919050565b6000806040838503121561185357600080fd5b61185c8361144b565b915061186a60208401611668565b90509250929050565b600181811c9082168061188757607f821691505b6020821081036118a757634e487b7160e01b600052602260045260246000fd5b50919050565b634e487b7160e01b600052604160045260246000fd5b634e487b7160e01b600052601160045260246000fd5b81810381811115610665576106656118c3565b80820180821115610665576106656118c3565b634e487b7160e01b600052603260045260246000fd5b600060018201611927576119276118c3565b5060010190565b601f82111561197857600081815260208120601f850160051c810160208610156119555750805b601f850160051c820191505b8181101561197457828155600101611961565b5050505b505050565b815167ffffffffffffffff811115611997576119976118ad565b6119ab816119a58454611873565b8461192e565b602080601f8311600181146119e057600084156119c85750858301515b600019600386901b1c1916600185901b178555611974565b600085815260208120601f198616915b82811015611a0f578886015182559484019460019091019084016119f0565b5085821015611a2d5787850151600019600388901b60f8161c191681555b5050505050600190811b01905550565b848152611a4d602082018561149f565b60606040820152816060820152818360808301376000818301608090810191909152601f909201601f19160101939250505056fea26469706673582212207c783e43b9538efaa5c9cfd5f05f49d8a3e4d51cff1f469756f95fb3f620908b64736f6c63430008140033",
  "linkReferences": {},
  "deployedLinkReferences": {}
}