{
  "_format": "hh-sol-artifact-1",
  "contractName": "MiniMateVault",
  "sourceName": "contracts/MiniMateVault.sol",
  "abi": [
    {
      "inputs": [
        {
          "internalType": "address",
          "name": "_cUSD",
          "type": "address"
        }
      ],
      "stateMutability": "nonpayable",
      "type": "constructor"
    },
    {
      "inputs": [
        {
          "internalType": "address",
          "name": "owner",
          "type": "address"
        }
      ],
      "name": "OwnableInvalidOwner",
      "type": "error"
    },
    {
      "inputs": [
        {
          "internalType": "address",
          "name": "account",
          "type": "address"
        }
      ],
      "name": "OwnableUnauthorizedAccount",
      "type": "error"
    },
    {
      "inputs": [],
      "name": "ReentrancyGuardReentrantCall",
      "type": "error"
    },
    {
      "inputs": [
        {
          "internalType": "address",
          "name": "token",
          "type": "address"
        }
      ],
      "name": "SafeERC20FailedOperation",
      "type": "error"
    },
    {
      "anonymous": false,
      "inputs": [
        {
          "indexed": true,
          "internalType": "address",
          "name": "user",
          "type": "address"
        },
        {
          "indexed": true,
          "internalType": "uint256",
          "name": "goalId",
          "type": "uint256"
        },
        {
          "indexed": false,
          "internalType": "uint256",
          "name": "amount",
          "type": "uint256"
        },
        {
          "indexed": false,
          "internalType": "uint256",
          "name": "interval",
          "type": "uint256"
        }
      ],
      "name": "AutoSaveSet",
      "type": "event"
    },
    {
      "anonymous": false,
      "inputs": [
        {
          "indexed": true,
          "internalType": "address",
          "name": "user",
          "type": "address"
        },
        {
          "indexed": true,
          "internalType": "uint256",
          "name": "goalId",
          "type": "uint256"
        },
        {
          "indexed": false,
          "internalType": "uint256",
          "name": "amount",
          "type": "uint256"
        }
      ],
      "name": "Deposited",
      "type": "event"
    },
    {
      "anonymous": false,
      "inputs": [
        {
          "indexed": true,
          "internalType": "address",
          "name": "user",
          "type": "address"
        },
        {
          "indexed": true,
          "internalType": "uint256",
          "name": "goalId",
          "type": "uint256"
        }
      ],
      "name": "GoalCompleted",
      "type": "event"
    },
    {
      "anonymous": false,
      "inputs": [
        {
          "indexed": true,
          "internalType": "address",
          "name": "user",
          "type": "address"
        },
        {
          "indexed": true,
          "internalType": "uint256",
          "name": "goalId",
          "type": "uint256"
        },
        {
          "indexed": false,
          "internalType": "string",
          "name": "name",
          "type": "string"
        },
        {
          "indexed": false,
          "internalType": "uint256",
          "name": "target",
          "type": "uint256"
        }
      ],
      "name": "GoalCreated",
      "type": "event"
    },
    {
      "anonymous": false,
      "inputs": [
        {
          "indexed": true,
          "internalType": "address",
          "name": "previousOwner",
          "type": "address"
        },
        {
          "indexed": true,
          "internalType": "address",
          "name": "newOwner",
          "type": "address"
        }
      ],
      "name": "OwnershipTransferred",
      "type": "event"
    },
    {
      "anonymous": false,
      "inputs": [
        {
          "indexed": true,
          "internalType": "address",
          "name": "user",
          "type": "address"
        },
        {
          "indexed": true,
          "internalType": "uint256",
          "name": "goalId",
          "type": "uint256"
        },
        {
          "indexed": false,
          "internalType": "uint256",
          "name": "amount",
          "type": "uint256"
        }
      ],
      "name": "Withdrawn",
      "type": "event"
    },
    {
      "inputs": [],
      "name": "cUSD",
      "outputs": [
        {
          "internalType": "contract IERC20",
          "name": "",
          "type": "address"
        }
      ],
      "stateMutability": "view",
      "type": "function"
    },
    {
      "inputs": [
        {
          "internalType": "string",
          "name": "_name",
          "type": "string"
        },
        {
          "internalType": "uint256",
          "name": "_targetAmount",
          "type": "uint256"
        },
        {
          "internalType": "uint256",
          "name": "_deadline",
          "type": "uint256"
        }
      ],
      "name": "createGoal",
      "outputs": [
        {
          "internalType": "uint256",
          "name": "",
          "type": "uint256"
        }
      ],
      "stateMutability": "nonpayable",
      "type": "function"
    },
    {
      "inputs": [
        {
          "internalType": "uint256",
          "name": "_goalId",
          "type": "uint256"
        },
        {
          "internalType": "uint256",
          "name": "_amount",
          "type": "uint256"
        }
      ],
      "name": "deposit",
      "outputs": [],
      "stateMutability": "nonpayable",
      "type": "function"
    },
    {
      "inputs": [
        {
          "internalType": "address",
          "name": "_user",
          "type": "address"
        },
        {
          "internalType": "uint256",
          "name": "_goalId",
          "type": "uint256"
        }
      ],
      "name": "executeAutoSave",
      "outputs": [],
      "stateMutability": "nonpayable",
      "type": "function"
    },
    {
      "inputs": [
        {
          "internalType": "address",
          "name": "_user",
          "type": "address"
        }
      ],
      "name": "getGoalCount",
      "outputs": [
        {
          "internalType": "uint256",
          "name": "",
          "type": "uint256"
        }
      ],
      "stateMutability": "view",
      "type": "function"
    },
    {
      "inputs": [
        {
          "internalType": "address",
          "name": "_user",
          "type": "address"
        }
      ],
      "name": "getGoals",
      "outputs": [
        {
          "components": [
            {
              "internalType": "string",
              "name": "name",
              "type": "string"
            },
            {
              "internalType": "uint256",
              "name": "targetAmount",
              "type": "uint256"
            },
            {
              "internalType": "uint256",
              "name": "savedAmount",
              "type": "uint256"
            },
            {
              "internalType": "uint256",
              "name": "deadline",
              "type": "uint256"
            },
            {
              "internalType": "uint256",
              "name": "autoSaveAmount",
              "type": "uint256"
            },
            {
              "internalType": "uint256",
              "name": "autoSaveInterval",
              "type": "uint256"
            },
            {
              "internalType": "uint256",
              "name": "lastAutoSave",
              "type": "uint256"
            },
            {
              "internalType": "bool",
              "name": "active",
              "type": "bool"
            },
            {
              "internalType": "bool",
              "name": "completed",
              "type": "bool"
            }
          ],
          "internalType": "struct MiniMateVault.Goal[]",
          "name": "",
          "type": "tuple[]"
        }
      ],
      "stateMutability": "view",
      "type": "function"
    },
    {
      "inputs": [
        {
          "internalType": "address",
          "name": "",
          "type": "address"
        },
        {
          "internalType": "uint256",
          "name": "",
          "type": "uint256"
        }
      ],
      "name": "goals",
      "outputs": [
        {
          "internalType": "string",
          "name": "name",
          "type": "string"
        },
        {
          "internalType": "uint256",
          "name": "targetAmount",
          "type": "uint256"
        },
        {
          "internalType": "uint256",
          "name": "savedAmount",
          "type": "uint256"
        },
        {
          "internalType": "uint256",
          "name": "deadline",
          "type": "uint256"
        },
        {
          "internalType": "uint256",
          "name": "autoSaveAmount",
          "type": "uint256"
        },
        {
          "internalType": "uint256",
          "name": "autoSaveInterval",
          "type": "uint256"
        },
        {
          "internalType": "uint256",
          "name": "lastAutoSave",
          "type": "uint256"
        },
        {
          "internalType": "bool",
          "name": "active",
          "type": "bool"
        },
        {
          "internalType": "bool",
          "name": "completed",
          "type": "bool"
        }
      ],
      "stateMutability": "view",
      "type": "function"
    },
    {
      "inputs": [],
      "name": "owner",
      "outputs": [
        {
          "internalType": "address",
          "name": "",
          "type": "address"
        }
      ],
      "stateMutability": "view",
      "type": "function"
    },
    {
      "inputs": [],
      "name": "renounceOwnership",
      "outputs": [],
      "stateMutability": "nonpayable",
      "type": "function"
    },
    {
      "inputs": [
        {
          "internalType": "uint256",
          "name": "_goalId",
          "type": "uint256"
        },
        {
          "internalType": "uint256",
          "name": "_amount",
          "type": "uint256"
        },
        {
          "internalType": "uint256",
          "name": "_interval",
          "type": "uint256"
        }
      ],
      "name": "setAutoSave",
      "outputs": [],
      "stateMutability": "nonpayable",
      "type": "function"
    },
    {
      "inputs": [
        {
          "internalType": "address",
          "name": "",
          "type": "address"
        }
      ],
      "name": "totalSaved",
      "outputs": [
        {
          "internalType": "uint256",
          "name": "",
          "type": "uint256"
        }
      ],
      "stateMutability": "view",
      "type": "function"
    },
    {
      "inputs": [
        {
          "internalType": "address",
          "name": "newOwner",
          "type": "address"
        }
      ],
      "name": "transferOwnership",
      "outputs": [],
      "stateMutability": "nonpayable",
      "type": "function"
    },
    {
      "inputs": [
        {
          "internalType": "uint256",
          "name": "_goalId",
          "type": "uint256"
        },
        {
          "internalType": "uint256",
          "name": "_amount",
          "type": "uint256"
        }
      ],
      "name": "withdraw",
      "outputs": [],
      "stateMutability": "nonpayable",
      "type": "function"
    }
  ],
  "bytecode": "0x60a060405234801561001057600080fd5b5060405161170438038061170483398101604081905261002f916100c4565b338061005557604051631e4fbdf760e01b81526000600482015260240160405180910390fd5b61005e81610074565b50600180556001600160a01b03166080526100f4565b600080546001600160a01b038381166001600160a01b0319831681178455604051919092169283917f8be0079c531659141344cd1fd0a4f28419497f9722a3daafe3b4186f6b6457e09190a35050565b6000602082840312156100d657600080fd5b81516001600160a01b03811681146100ed57600080fd5b9392505050565b6080516115d961012b60003960008181610134015281816103c00152818161048f015281816108de0152610def01526115d96000f3fe608060405234801561001057600080fd5b50600436106100cf5760003560e01c8063715018a61161008c578063cb8cb4a311610066578063cb8cb4a3146101eb578063d919b4b81461020b578063e2bbb1581461021e578063f2fde38b1461023157600080fd5b8063715018a6146101aa5780638da5cb5b146101b2578063c403c2ae146101c357600080fd5b806307a49f3f146100d457806307f8ebdd146100e9578063113d22781461011c5780631fccf6721461012f578063441a3e701461016e578063462ba2f714610181575b600080fd5b6100e76100e23660046110f8565b610244565b005b6101096100f7366004611122565b60036020526000908152604090205481565b6040519081526020015b60405180910390f35b61010961012a366004611144565b6105be565b6101567f000000000000000000000000000000000000000000000000000000000000000081565b6040516001600160a01b039091168152602001610113565b6100e761017c3660046111c3565b6107ea565b61010961018f366004611122565b6001600160a01b031660009081526002602052604090205490565b6100e7610946565b6000546001600160a01b0316610156565b6101d66101d13660046110f8565b61095a565b6040516101139998979695949392919061122b565b6101fe6101f9366004611122565b610a55565b6040516101139190611283565b6100e7610219366004611346565b610bbc565b6100e761022c3660046111c3565b610cf2565b6100e761023f366004611122565b610ee3565b61024c610f21565b6001600160a01b038216600090815260026020526040812080548390811061027657610276611372565b60009182526020909120600890910201600781015490915060ff166102b65760405162461bcd60e51b81526004016102ad90611388565b60405180910390fd5b6007810154610100900460ff16156103015760405162461bcd60e51b815260206004820152600e60248201526d11dbd85b0818dbdb5c1b195d195960921b60448201526064016102ad565b60008160040154116103495760405162461bcd60e51b8152602060048201526011602482015270105d5d1bcb5cd85d99481b9bdd081cd95d607a1b60448201526064016102ad565b8060050154816006015461035d91906113c7565b4210156103985760405162461bcd60e51b8152602060048201526009602482015268546f6f206561726c7960b81b60448201526064016102ad565b604051636eb1769f60e11b81526001600160a01b0384811660048301523060248301526000917f00000000000000000000000000000000000000000000000000000000000000009091169063dd62ed3e90604401602060405180830381865afa158015610409573d6000803e3d6000fd5b505050506040513d601f19601f8201168201806040525081019061042d91906113e0565b9050816004015481101561047c5760405162461bcd60e51b8152602060048201526016602482015275496e73756666696369656e7420616c6c6f77616e636560501b60448201526064016102ad565b60048201546104b9906001600160a01b037f0000000000000000000000000000000000000000000000000000000000000000169086903090610f4b565b81600401548260020160008282546104d191906113c7565b909155505042600683015560048201546001600160a01b038516600090815260036020526040812080549091906105099084906113c7565b9250508190555082846001600160a01b03167f73a19dd210f1a7f902193214c0ee91dd35ee5b4d920cba8d519eca65a7b488ca846004015460405161055091815260200190565b60405180910390a381600101548260020154106105af5760078201805461ff00191661010017905560405183906001600160a01b038616907f579cc82af9bcd18b00ab52adafc099949989ee7a6e05670c2daa2eb2ae5a69af90600090a35b50506105ba60018055565b5050565b60008083116106045760405162461bcd60e51b81526020600482015260126024820152710546172676574206d757374206265203e20360741b60448201526064016102ad565b4282116106535760405162461bcd60e51b815260206004820152601760248201527f446561646c696e65206d7573742062652066757475726500000000000000000060448201526064016102ad565b336000908152600260209081526040918290208251610140601f890184900490930281018301909352610120830187815290929182919089908990819085018382808284376000920182905250938552505050602080830188905260408301829052606083018790526080830182905260a0830182905260c08301829052600160e08401819052610100909301829052845492830185559381529290922081519192600802019081906107069082611497565b50602082810151600183810191909155604080850151600280860191909155606086015160038601556080860151600486015560a0860151600586015560c0860151600686015560e0860151600790950180546101009788015161ffff1990911696151561ff00191696909617951515909602949094179094553360009081529290915291812054909161079991611557565b905080336001600160a01b03167fc10aec654e46b9430ca183753541beb80af5a9a62d0031364e9b73c45145362b8888886040516107d99392919061156a565b60405180910390a395945050505050565b6107f2610f21565b33600090815260026020526040812080548490811061081357610813611372565b60009182526020909120600890910201600781015490915060ff1661084a5760405162461bcd60e51b81526004016102ad90611388565b80600201548211156108935760405162461bcd60e51b8152602060048201526012602482015271125b9cdd59999a58da595b9d081cd85d995960721b60448201526064016102ad565b818160020160008282546108a79190611557565b909155505033600090815260036020526040812080548492906108cb908490611557565b9091555061090590506001600160a01b037f0000000000000000000000000000000000000000000000000000000000000000163384610fb8565b604051828152839033907f92ccf450a286a957af52509bc1c9939d1a6a481783e142e41e2499f0bb66ebc69060200160405180910390a3506105ba60018055565b61094e610fee565b610958600061101b565b565b6002602052816000526040600020818154811061097657600080fd5b90600052602060002090600802016000915091505080600001805461099a9061140f565b80601f01602080910402602001604051908101604052809291908181526020018280546109c69061140f565b8015610a135780601f106109e857610100808354040283529160200191610a13565b820191906000526020600020905b8154815290600101906020018083116109f657829003601f168201915b50505050600183015460028401546003850154600486015460058701546006880154600790980154969794969395509193909260ff8082169161010090041689565b6001600160a01b0381166000908152600260209081526040808320805482518185028101850190935280835260609492939192909184015b82821015610bb1578382906000526020600020906008020160405180610120016040529081600082018054610ac19061140f565b80601f0160208091040260200160405190810160405280929190818152602001828054610aed9061140f565b8015610b3a5780601f10610b0f57610100808354040283529160200191610b3a565b820191906000526020600020905b815481529060010190602001808311610b1d57829003601f168201915b5050509183525050600182810154602080840191909152600284015460408401526003840154606084015260048401546080840152600584015460a0840152600684015460c084015260079093015460ff808216151560e08501526101009182900416151592019190915291835292019101610a8d565b505050509050919050565b336000908152600260205260408120805485908110610bdd57610bdd611372565b60009182526020909120600890910201600781015490915060ff16610c145760405162461bcd60e51b81526004016102ad90611388565b60008311610c595760405162461bcd60e51b81526020600482015260126024820152710416d6f756e74206d757374206265203e20360741b60448201526064016102ad565b610e10821015610ca15760405162461bcd60e51b815260206004820152601360248201527226b4b71034b73a32b93b30b61018903437bab960691b60448201526064016102ad565b60048101839055600581018290556040805184815260208101849052859133917f8f5d627dfc27683a407f94877329b1ef3179a974ea26a950c19e89cd1a1ea635910160405180910390a350505050565b610cfa610f21565b336000908152600260205260408120805484908110610d1b57610d1b611372565b60009182526020909120600890910201600781015490915060ff16610d525760405162461bcd60e51b81526004016102ad90611388565b6007810154610100900460ff1615610d9d5760405162461bcd60e51b815260206004820152600e60248201526d11dbd85b0818dbdb5c1b195d195960921b60448201526064016102ad565b60008211610de25760405162461bcd60e51b81526020600482015260126024820152710416d6f756e74206d757374206265203e20360741b60448201526064016102ad565b610e176001600160a01b037f000000000000000000000000000000000000000000000000000000000000000016333085610f4b565b81816002016000828254610e2b91906113c7565b90915550503360009081526003602052604081208054849290610e4f9084906113c7565b9091555050604051828152839033907f73a19dd210f1a7f902193214c0ee91dd35ee5b4d920cba8d519eca65a7b488ca9060200160405180910390a38060010154816002015410610ed95760078101805461ff001916610100179055604051839033907f579cc82af9bcd18b00ab52adafc099949989ee7a6e05670c2daa2eb2ae5a69af90600090a35b506105ba60018055565b610eeb610fee565b6001600160a01b038116610f1557604051631e4fbdf760e01b8152600060048201526024016102ad565b610f1e8161101b565b50565b600260015403610f4457604051633ee5aeb560e01b815260040160405180910390fd5b6002600155565b6040516001600160a01b038481166024830152838116604483015260648201839052610fb29186918216906323b872dd906084015b604051602081830303815290604052915060e01b6020820180516001600160e01b03838183161783525050505061106b565b50505050565b6040516001600160a01b03838116602483015260448201839052610fe991859182169063a9059cbb90606401610f80565b505050565b6000546001600160a01b031633146109585760405163118cdaa760e01b81523360048201526024016102ad565b600080546001600160a01b038381166001600160a01b0319831681178455604051919092169283917f8be0079c531659141344cd1fd0a4f28419497f9722a3daafe3b4186f6b6457e09190a35050565b600080602060008451602086016000885af18061108e576040513d6000823e3d81fd5b50506000513d915081156110a65780600114156110b3565b6001600160a01b0384163b155b15610fb257604051635274afe760e01b81526001600160a01b03851660048201526024016102ad565b80356001600160a01b03811681146110f357600080fd5b919050565b6000806040838503121561110b57600080fd5b611114836110dc565b946020939093013593505050565b60006020828403121561113457600080fd5b61113d826110dc565b9392505050565b6000806000806060858703121561115a57600080fd5b843567ffffffffffffffff8082111561117257600080fd5b818701915087601f83011261118657600080fd5b81358181111561119557600080fd5b8860208285010111156111a757600080fd5b6020928301999098509187013596604001359550909350505050565b600080604083850312156111d657600080fd5b50508035926020909101359150565b6000815180845260005b8181101561120b576020818501810151868301820152016111ef565b506000602082860101526020601f19601f83011685010191505092915050565b600061012080835261123f8184018d6111e5565b602084019b909b52505060408101979097526060870195909552608086019390935260a085019190915260c0840152151560e0830152151561010090910152919050565b60006020808301818452808551808352604092508286019150828160051b87010184880160005b8381101561133857603f19898403018552815161012081518186526112d1828701826111e5565b838b0151878c0152898401518a880152606080850151908801526080808501519088015260a0808501519088015260c0808501519088015260e0808501511515908801526101009384015115159390960192909252505093860193908601906001016112aa565b509098975050505050505050565b60008060006060848603121561135b57600080fd5b505081359360208301359350604090920135919050565b634e487b7160e01b600052603260045260246000fd5b6020808252600f908201526e476f616c206e6f742061637469766560881b604082015260600190565b634e487b7160e01b600052601160045260246000fd5b808201808211156113da576113da6113b1565b92915050565b6000602082840312156113f257600080fd5b5051919050565b634e487b7160e01b600052604160045260246000fd5b600181811c9082168061142357607f821691505b60208210810361144357634e487b7160e01b600052602260045260246000fd5b50919050565b601f821115610fe957600081815260208120601f850160051c810160208610156114705750805b601f850160051c820191505b8181101561148f5782815560010161147c565b505050505050565b815167ffffffffffffffff8111156114b1576114b16113f9565b6114c5816114bf845461140f565b84611449565b602080601f8311600181146114fa57600084156114e25750858301515b600019600386901b1c1916600185901b17855561148f565b600085815260208120601f198616915b828110156115295788860151825594840194600190910190840161150a565b50858210156115475787850151600019600388901b60f8161c191681555b5050505050600190811b01905550565b818103818111156113da576113da6113b1565b604081528260408201528284606083013760006060848301015260006060601f19601f860116830101905082602083015294935050505056fea2646970667358221220b47bb371e862cbde970f723610e40136230aa18a9c63612a5cc88e69b3f402e164736f6c63430008140033",
  "linkReferences": {},
  "deployedLinkReferences": {}
}